:020000040800F2
:100000000804002045010008D901000893010008F8
:10001000D50100088D010008390300080000000028
:10002000000000000000000000000000DD010008EA
:100030009101000800000000DB010008C90200086F
:100040005F0100085F0100085F0100085F01000810
:100050005F0100085F0100085F0100085F01000800
:100060005F0100085F0100085F0100085F010008F0
:100070005F0100085F0100085F0100085F010008E0
:100080005F0100085F0100085F0100085F010008D0
:100090005F0100085F0100085F0100085F010008C0
:1000A0005F0100085F0100085F0100085F010008B0
:1000B0005F0100085F0100085F0100085F010008A0
:1000C0005F0100085F0100085F0100085F01000890
:1000D0005F0100085F0100085F0100085F01000880
:1000E0005F0100085F0100085F0100085F01000870
:1000F0005F0100085F0100085F0100085F01000860
:100100005F0100085F0100085F0100085F0100084F
:100110005F0100085F0100085F0100085F0100083F
:100120005F0100085F0100085F0100085F0100082F
:10013000DFF80CD000F018F80048004775030008FD
:10014000080400200648804706480047FEE7FEE70F
:10015000FEE7FEE7FEE7FEE7FEE7FEE7FEE7FEE777
:10016000D902000831010008064C074D06E0E0689E
:1001700040F0010394E8070098471034AC42F6D3EE
:10018000FFF7DAFFA8030008C803000800BFFEE776
:10019000704700BFFEE700000C48806940F0400057
:1001A0000A4988610A480068002009490860084631
:1001B000006840F01130086005480830006840F4DD
:1001C0008070034908310860704700000010024049
:1001D0000418014000BFFEE770477047704710B534
:1001E00000F002F810BD00000CB500200190009056
:1001F0003348006840F480303149086000BF30481F
:10020000006800F4003000900198401C01900098B4
:1002100018B90198B0F5A06FF1D12948006800F431
:10022000003010B10120009001E000200090009803
:10023000012843D12348006840F01000214908609C
:100240000846006820F0030008600846006840F097
:10025000020008601A48406819494860084640682A
:1002600048600846406840F480604860084640683E
:1002700020F47C1048600846406840F4E81048606C
:100280000846006840F08070086000BF0C480068B5
:1002900000F000700028F9D00948406820F0030001
:1002A000074948600846406840F00200486000BFC7
:1002B0000348406800F00C000828F9D10CBD00008C
:1002C000001002400020024002480068401C014922
:1002D000086070470000002010B51348006840F027
:1002E00001001149086008464068104908400E495D
:1002F0004860084600680E4908400B4908600846F7
:10030000006820F4802008600846406820F4FE0061
:1003100048604FF41F008860FFF761FF4FF00060F6
:100320000449086010BD0000001002400000FFF802
:10033000FFFFF6FE08ED00E000BFFEE702E008C8A0
:10034000121F08C1002AFAD170477047002001E04F
:1003500001C1121F002AFBD17047002106E00022D4
:1003600000E0521CB2F5C05FFBD3491C8142F6D3BA
:1003700070470000FFF710FF13E04FF47A70FFF7AB
:10038000ECFF0848006820F48070064908604FF4CC
:100390007A70FFF7E2FF0348006840F4807001497B
:1003A0000860EAE70C180140C803000800000020BC
:1003B000080000003C030008D003000808000020EB
:1003C000000400004C0300080000000000000000D2
:0400000508000131BD
:00000001FF
